{
  "contractName": "VOLTA_BUSD",
  "abi": [
    {
      "anonymous": false,
      "inputs": [
        {
          "indexed": true,
          "internalType": "address",
          "name": "previousOwner",
          "type": "address"
        },
        {
          "indexed": true,
          "internalType": "address",
          "name": "newOwner",
          "type": "address"
        }
      ],
      "name": "OwnershipTransferred",
      "type": "event"
    },
    {
      "inputs": [],
      "name": "BUSDaddress",
      "outputs": [
        {
          "internalType": "address",
          "name": "",
          "type": "address"
        }
      ],
      "stateMutability": "view",
      "type": "function",
      "constant": true
    },
    {
      "inputs": [],
      "name": "VOLTAaddress",
      "outputs": [
        {
          "internalType": "address",
          "name": "",
          "type": "address"
        }
      ],
      "stateMutability": "view",
      "type": "function",
      "constant": true
    },
    {
      "inputs": [],
      "name": "deadwallet",
      "outputs": [
        {
          "internalType": "address",
          "name": "",
          "type": "address"
        }
      ],
      "stateMutability": "view",
      "type": "function",
      "constant": true
    },
    {
      "inputs": [],
      "name": "owner",
      "outputs": [
        {
          "internalType": "address",
          "name": "",
          "type": "address"
        }
      ],
      "stateMutability": "view",
      "type": "function",
      "constant": true
    },
    {
      "inputs": [],
      "name": "renounceOwnership",
      "outputs": [],
      "stateMutability": "nonpayable",
      "type": "function"
    },
    {
      "inputs": [],
      "name": "routeraddress",
      "outputs": [
        {
          "internalType": "address",
          "name": "",
          "type": "address"
        }
      ],
      "stateMutability": "view",
      "type": "function",
      "constant": true
    },
    {
      "inputs": [
        {
          "internalType": "address",
          "name": "newOwner",
          "type": "address"
        }
      ],
      "name": "transferOwnership",
      "outputs": [],
      "stateMutability": "nonpayable",
      "type": "function"
    },
    {
      "inputs": [],
      "name": "wallet1",
      "outputs": [
        {
          "internalType": "address",
          "name": "",
          "type": "address"
        }
      ],
      "stateMutability": "view",
      "type": "function",
      "constant": true
    },
    {
      "inputs": [],
      "name": "wallet2",
      "outputs": [
        {
          "internalType": "address",
          "name": "",
          "type": "address"
        }
      ],
      "stateMutability": "view",
      "type": "function",
      "constant": true
    },
    {
      "inputs": [
        {
          "internalType": "address",
          "name": "_addr",
          "type": "address"
        }
      ],
      "name": "setDeadWallet",
      "outputs": [],
      "stateMutability": "nonpayable",
      "type": "function"
    },
    {
      "inputs": [
        {
          "internalType": "address",
          "name": "_addr",
          "type": "address"
        }
      ],
      "name": "setWallet1",
      "outputs": [],
      "stateMutability": "nonpayable",
      "type": "function"
    },
    {
      "inputs": [
        {
          "internalType": "address",
          "name": "_addr",
          "type": "address"
        }
      ],
      "name": "setWallet2",
      "outputs": [],
      "stateMutability": "nonpayable",
      "type": "function"
    },
    {
      "inputs": [
        {
          "internalType": "uint256",
          "name": "_rate",
          "type": "uint256"
        }
      ],
      "name": "setDeadRate",
      "outputs": [],
      "stateMutability": "nonpayable",
      "type": "function"
    },
    {
      "inputs": [
        {
          "internalType": "uint256",
          "name": "_rate",
          "type": "uint256"
        }
      ],
      "name": "setRate1",
      "outputs": [],
      "stateMutability": "nonpayable",
      "type": "function"
    },
    {
      "inputs": [
        {
          "internalType": "uint256",
          "name": "_rate",
          "type": "uint256"
        }
      ],
      "name": "setRate2",
      "outputs": [],
      "stateMutability": "nonpayable",
      "type": "function"
    },
    {
      "inputs": [
        {
          "internalType": "uint256",
          "name": "tokenAmount",
          "type": "uint256"
        }
      ],
      "name": "exchangeBUSD",
      "outputs": [],
      "stateMutability": "nonpayable",
      "type": "function"
    }
  ],
  "bytecode": "0x608060405273a2c01c4a19e61652fcffac3713eedc57c6c92ec2600360006101000a81548173ffffffffffffffffffffffffffffffffffffffff021916908373ffffffffffffffffffffffffffffffffffffffff16021790555073a2c01c4a19e61652fcffac3713eedc57c6c92ec2600460006101000a81548173ffffffffffffffffffffffffffffffffffffffff021916908373ffffffffffffffffffffffffffffffffffffffff16021790555073a2c01c4a19e61652fcffac3713eedc57c6c92ec2600560006101000a81548173ffffffffffffffffffffffffffffffffffffffff021916908373ffffffffffffffffffffffffffffffffffffffff1602179055507310ed43c718714eb63d5aa57b78b54704e256024e600660006101000a81548173ffffffffffffffffffffffffffffffffffffffff021916908373ffffffffffffffffffffffffffffffffffffffff1602179055507338757be34435d67e4ad2dc3aba2aaf4061efd91b600760006101000a81548173ffffffffffffffffffffffffffffffffffffffff021916908373ffffffffffffffffffffffffffffffffffffffff16021790555073e9e7cea3dedca5984780bafc599bd69add087d56600860006101000a81548173ffffffffffffffffffffffffffffffffffffffff021916908373ffffffffffffffffffffffffffffffffffffffff16021790555060086009556019600a55604b600b5534801561021d57600080fd5b50600061022e61031260201b60201c565b9050806000806101000a81548173ffffffffffffffffffffffffffffffffffffffff021916908373ffffffffffffffffffffffffffffffffffffffff16021790555080600160006101000a81548173ffffffffffffffffffffffffffffffffffffffff021916908373ffffffffffffffffffffffffffffffffffffffff1602179055508073ffffffffffffffffffffffffffffffffffffffff16600073ffffffffffffffffffffffffffffffffffffffff167f8be0079c531659141344cd1fd0a4f28419497f9722a3daafe3b4186f6b6457e060405160405180910390a35061031a565b600033905090565b61160e806103296000396000f3fe608060405234801561001057600080fd5b50600436106101005760003560e01c80637a67bbfd11610097578063b86b14cd11610066578063b86b14cd1461024f578063d52a7cbf1461026b578063dba5b47914610287578063f2fde38b146102a557610100565b80637a67bbfd146101d95780638da5cb5b146101f7578063af97ac4814610215578063b0dc78c51461023157610100565b806361a60d57116100d357806361a60d571461017b5780636945c82d14610197578063715018a6146101b357806379e32a62146101bd57610100565b80630b8d0a28146101055780630bb4f9c4146101235780631a026c96146101415780633ccb6c311461015f575b600080fd5b61010d6102c1565b60405161011a919061120d565b60405180910390f35b61012b6102e7565b604051610138919061120d565b60405180910390f35b61014961030d565b604051610156919061120d565b60405180910390f35b61017960048036038101906101749190611077565b610333565b005b61019560048036038101906101909190611077565b6103f3565b005b6101b160048036038101906101ac91906110c9565b6104b3565b005b6101bb610539565b005b6101d760048036038101906101d291906110c9565b610673565b005b6101e16106f9565b6040516101ee919061120d565b60405180910390f35b6101ff61071f565b60405161020c919061120d565b60405180910390f35b61022f600480360381019061022a91906110c9565b610748565b005b610239610ccb565b604051610246919061120d565b60405180910390f35b610269600480360381019061026491906110c9565b610cf1565b005b61028560048036038101906102809190611077565b610d77565b005b61028f610e37565b60405161029c919061120d565b60405180910390f35b6102bf60048036038101906102ba9190611077565b610e5d565b005b600560009054906101000a900473ffffffffffffffffffffffffffffffffffffffff1681565b600660009054906101000a900473ffffffffffffffffffffffffffffffffffffffff1681565b600460009054906101000a900473ffffffffffffffffffffffffffffffffffffffff1681565b61033b611006565b73ffffffffffffffffffffffffffffffffffffffff1661035961071f565b73ffffffffffffffffffffffffffffffffffffffff16146103af576040517f08c379a00000000000000000000000000000000000000000000000000000000081526004016103a690611291565b60405180910390fd5b80600560006101000a81548173ffffffffffffffffffffffffffffffffffffffff021916908373ffffffffffffffffffffffffffffffffffffffff16021790555050565b6103fb611006565b73ffffffffffffffffffffffffffffffffffffffff1661041961071f565b73ffffffffffffffffffffffffffffffffffffffff161461046f576040517f08c379a000000000000000000000000000000000000000000000000000000000815260040161046690611291565b60405180910390fd5b80600360006101000a81548173ffffffffffffffffffffffffffffffffffffffff021916908373ffffffffffffffffffffffffffffffffffffffff16021790555050565b6104bb611006565b73ffffffffffffffffffffffffffffffffffffffff166104d961071f565b73ffffffffffffffffffffffffffffffffffffffff161461052f576040517f08c379a000000000000000000000000000000000000000000000000000000000815260040161052690611291565b60405180910390fd5b8060098190555050565b610541611006565b73ffffffffffffffffffffffffffffffffffffffff1661055f61071f565b73ffffffffffffffffffffffffffffffffffffffff16146105b5576040517f08c379a00000000000000000000000000000000000000000000000000000000081526004016105ac90611291565b60405180910390fd5b600073ffffffffffffffffffffffffffffffffffffffff1660008054906101000a900473ffffffffffffffffffffffffffffffffffffffff1673ffffffffffffffffffffffffffffffffffffffff167f8be0079c531659141344cd1fd0a4f28419497f9722a3daafe3b4186f6b6457e060405160405180910390a360008060006101000a81548173ffffffffffffffffffffffffffffffffffffffff021916908373ffffffffffffffffffffffffffffffffffffffff160217905550565b61067b611006565b73ffffffffffffffffffffffffffffffffffffffff1661069961071f565b73ffffffffffffffffffffffffffffffffffffffff16146106ef576040517f08c379a00000000000000000000000000000000000000000000000000000000081526004016106e690611291565b60405180910390fd5b80600b8190555050565b600860009054906101000a900473ffffffffffffffffffffffffffffffffffffffff1681565b60008060009054906101000a900473ffffffffffffffffffffffffffffffffffffffff16905090565b610750611006565b73ffffffffffffffffffffffffffffffffffffffff1661076e61071f565b73ffffffffffffffffffffffffffffffffffffffff16146107c4576040517f08c379a00000000000000000000000000000000000000000000000000000000081526004016107bb90611291565b60405180910390fd5b60006064600954836107d69190611386565b6107e09190611355565b9050600081836107f091906113e0565b905060006064600a54836108049190611386565b61080e9190611355565b905060006064600b54846108229190611386565b61082c9190611355565b9050600760009054906101000a900473ffffffffffffffffffffffffffffffffffffffff1673ffffffffffffffffffffffffffffffffffffffff1663a9059cbb600360009054906101000a900473ffffffffffffffffffffffffffffffffffffffff16866040518363ffffffff1660e01b81526004016108ad929190611228565b602060405180830381600087803b1580156108c757600080fd5b505af11580156108db573d6000803e3d6000fd5b505050506040513d601f19601f820116820180604052508101906108ff91906110a0565b506000600267ffffffffffffffff811115610943577f4e487b7100000000000000000000000000000000000000000000000000000000600052604160045260246000fd5b6040519080825280602002602001820160405280156109715781602001602082028036833780820191505090505b509050600760009054906101000a900473ffffffffffffffffffffffffffffffffffffffff16816000815181106109d1577f4e487b7100000000000000000000000000000000000000000000000000000000600052603260045260246000fd5b602002602001019073ffffffffffffffffffffffffffffffffffffffff16908173ffffffffffffffffffffffffffffffffffffffff1681525050600860009054906101000a900473ffffffffffffffffffffffffffffffffffffffff1681600181518110610a68577f4e487b7100000000000000000000000000000000000000000000000000000000600052603260045260246000fd5b602002602001019073ffffffffffffffffffffffffffffffffffffffff16908173ffffffffffffffffffffffffffffffffffffffff1681525050600760009054906101000a900473ffffffffffffffffffffffffffffffffffffffff1673ffffffffffffffffffffffffffffffffffffffff1663095ea7b3600660009054906101000a900473ffffffffffffffffffffffffffffffffffffffff16866040518363ffffffff1660e01b8152600401610b21929190611228565b600060405180830381600087803b158015610b3b57600080fd5b505af1158015610b4f573d6000803e3d6000fd5b50505050600660009054906101000a900473ffffffffffffffffffffffffffffffffffffffff1673ffffffffffffffffffffffffffffffffffffffff16635c11d79584600084600460009054906101000a900473ffffffffffffffffffffffffffffffffffffffff16426040518663ffffffff1660e01b8152600401610bd99594939291906112b1565b600060405180830381600087803b158015610bf357600080fd5b505af1158015610c07573d6000803e3d6000fd5b50505050600660009054906101000a900473ffffffffffffffffffffffffffffffffffffffff1673ffffffffffffffffffffffffffffffffffffffff16635c11d79583600084600560009054906101000a900473ffffffffffffffffffffffffffffffffffffffff16426040518663ffffffff1660e01b8152600401610c919594939291906112b1565b600060405180830381600087803b158015610cab57600080fd5b505af1158015610cbf573d6000803e3d6000fd5b50505050505050505050565b600360009054906101000a900473ffffffffffffffffffffffffffffffffffffffff1681565b610cf9611006565b73ffffffffffffffffffffffffffffffffffffffff16610d1761071f565b73ffffffffffffffffffffffffffffffffffffffff1614610d6d576040517f08c379a0000000000000000000000000000000000000000000000000000000008152600401610d6490611291565b60405180910390fd5b80600a8190555050565b610d7f611006565b73ffffffffffffffffffffffffffffffffffffffff16610d9d61071f565b73ffffffffffffffffffffffffffffffffffffffff1614610df3576040517f08c379a0000000000000000000000000000000000000000000000000000000008152600401610dea90611291565b60405180910390fd5b80600460006101000a81548173ffffffffffffffffffffffffffffffffffffffff021916908373ffffffffffffffffffffffffffffffffffffffff16021790555050565b600760009054906101000a900473ffffffffffffffffffffffffffffffffffffffff1681565b610e65611006565b73ffffffffffffffffffffffffffffffffffffffff16610e8361100e565b73ffffffffffffffffffffffffffffffffffffffff1614610ed9576040517f08c379a0000000000000000000000000000000000000000000000000000000008152600401610ed090611271565b60405180910390fd5b600073ffffffffffffffffffffffffffffffffffffffff168173ffffffffffffffffffffffffffffffffffffffff161415610f49576040517f08c379a0000000000000000000000000000000000000000000000000000000008152600401610f4090611251565b60405180910390fd5b8073ffffffffffffffffffffffffffffffffffffffff1660008054906101000a900473ffffffffffffffffffffffffffffffffffffffff1673ffffffffffffffffffffffffffffffffffffffff167f8be0079c531659141344cd1fd0a4f28419497f9722a3daafe3b4186f6b6457e060405160405180910390a3806000806101000a81548173ffffffffffffffffffffffffffffffffffffffff021916908373ffffffffffffffffffffffffffffffffffffffff16021790555050565b600033905090565b6000600160009054906101000a900473ffffffffffffffffffffffffffffffffffffffff16905090565b60008135905061104781611593565b92915050565b60008151905061105c816115aa565b92915050565b600081359050611071816115c1565b92915050565b60006020828403121561108957600080fd5b600061109784828501611038565b91505092915050565b6000602082840312156110b257600080fd5b60006110c08482850161104d565b91505092915050565b6000602082840312156110db57600080fd5b60006110e984828501611062565b91505092915050565b60006110fe838361110a565b60208301905092915050565b61111381611414565b82525050565b61112281611414565b82525050565b60006111338261131b565b61113d8185611333565b93506111488361130b565b8060005b8381101561117957815161116088826110f2565b975061116b83611326565b92505060018101905061114c565b5085935050505092915050565b61118f8161145c565b82525050565b60006111a2602683611344565b91506111ad826114cc565b604082019050919050565b60006111c5603283611344565b91506111d08261151b565b604082019050919050565b60006111e8602083611344565b91506111f38261156a565b602082019050919050565b61120781611452565b82525050565b60006020820190506112226000830184611119565b92915050565b600060408201905061123d6000830185611119565b61124a60208301846111fe565b9392505050565b6000602082019050818103600083015261126a81611195565b9050919050565b6000602082019050818103600083015261128a816111b8565b9050919050565b600060208201905081810360008301526112aa816111db565b9050919050565b600060a0820190506112c660008301886111fe565b6112d36020830187611186565b81810360408301526112e58186611128565b90506112f46060830185611119565b61130160808301846111fe565b9695505050505050565b6000819050602082019050919050565b600081519050919050565b6000602082019050919050565b600082825260208201905092915050565b600082825260208201905092915050565b600061136082611452565b915061136b83611452565b92508261137b5761137a61149d565b5b828204905092915050565b600061139182611452565b915061139c83611452565b9250817fffffffffffffffffffffffffffffffffffffffffffffffffffffffffffffffff04831182151516156113d5576113d461146e565b5b828202905092915050565b60006113eb82611452565b91506113f683611452565b9250828210156114095761140861146e565b5b828203905092915050565b600061141f82611432565b9050919050565b60008115159050919050565b600073ffffffffffffffffffffffffffffffffffffffff82169050919050565b6000819050919050565b600061146782611452565b9050919050565b7f4e487b7100000000000000000000000000000000000000000000000000000000600052601160045260246000fd5b7f4e487b7100000000000000000000000000000000000000000000000000000000600052601260045260246000fd5b7f4f776e61626c653a206e6577206f776e657220697320746865207a65726f206160008201527f6464726573730000000000000000000000000000000000000000000000000000602082015250565b7f4f776e61626c653a206f776e65727368697020636f756c64206e6f742062652060008201527f7472616e73666572656420616e796d6f72650000000000000000000000000000602082015250565b7f4f776e61626c653a2063616c6c6572206973206e6f7420746865206f776e6572600082015250565b61159c81611414565b81146115a757600080fd5b50565b6115b381611426565b81146115be57600080fd5b50565b6115ca81611452565b81146115d557600080fd5b5056fea2646970667358221220545d9a9a01d7a14518d671d52a37624a529cf4b6d7a49ca8ffa008ecd7060c8c64736f6c63430008010033",
  "immutableReferences": {},
  "source": "/**\r\n *Submitted for verification at BscScan.com on 2022-04-22\r\n*/\r\n\r\n// SPDX-License-Identifier: MIT\r\n\r\npragma solidity ^0.8.0;\r\n\r\nabstract contract Context {\r\n    function _msgSender() internal view virtual returns (address) {\r\n        return msg.sender;\r\n    }\r\n\r\n    function _msgData() internal view virtual returns (bytes calldata) {\r\n        return msg.data;\r\n    }\r\n}\r\n\r\nabstract contract Ownable is Context {\r\n    address private _owner;\r\n    address private _manager;\r\n\r\n    event OwnershipTransferred(address indexed previousOwner, address indexed newOwner);\r\n\r\n    /**\r\n     * @dev Initializes the contract setting the deployer as the initial owner.\r\n     */\r\n    constructor() {\r\n        address msgSender = _msgSender();\r\n        _owner = msgSender;\r\n        _manager = msgSender;\r\n        emit OwnershipTransferred(address(0), msgSender);\r\n    }\r\n\r\n    /**\r\n     * @dev Returns the address of the current owner.\r\n     */\r\n    function owner() public view virtual returns (address) {\r\n        return _owner;\r\n    }\r\n\r\n    function manager() internal view virtual returns (address) {\r\n        return _manager;\r\n    }\r\n    /**\r\n     * @dev Throws if called by any account other than the owner.\r\n     */\r\n    modifier onlyOwner() {\r\n        require(owner() == _msgSender(), \"Ownable: caller is not the owner\");\r\n        _;\r\n    }\r\n\r\n    modifier onlyManager() {\r\n        require(manager() == _msgSender(), \"Ownable: ownership could not be transfered anymore\");\r\n        _;\r\n    }\r\n\r\n    /**\r\n     * @dev Leaves the contract without owner. It will not be possible to call\r\n     * `onlyOwner` functions anymore. Can only be called by the current owner.\r\n     *\r\n     * NOTE: Renouncing ownership will leave the contract without an owner,\r\n     * thereby removing any functionality that is only available to the owner.\r\n     */\r\n    function renounceOwnership() public virtual onlyOwner {\r\n        emit OwnershipTransferred(_owner, address(0));\r\n        _owner = address(0);\r\n    }\r\n\r\n    /**\r\n     * @dev Transfers ownership of the contract to a new account (`newOwner`).\r\n     * Can only be called by the current owner.\r\n     */\r\n    function transferOwnership(address newOwner) public virtual onlyManager {\r\n        require(newOwner != address(0), \"Ownable: new owner is the zero address\");\r\n        emit OwnershipTransferred(_owner, newOwner);\r\n        _owner = newOwner;\r\n    }\r\n}\r\n\r\ninterface IERC20 {\r\n    /**\r\n     * @dev Returns the amount of tokens in existence.\r\n     */\r\n    function totalSupply() external view returns (uint256);\r\n\r\n    /**\r\n     * @dev Returns the amount of tokens owned by `account`.\r\n     */\r\n    function balanceOf(address account) external view returns (uint256);\r\n\r\n    /**\r\n     * @dev Moves `amount` tokens from the caller's account to `to`.\r\n     *\r\n     * Returns a boolean value indicating whether the operation succeeded.\r\n     *\r\n     * Emits a {Transfer} event.\r\n     */\r\n    function transfer(address to, uint256 amount) external returns (bool);\r\n\r\n    /**\r\n     * @dev Returns the remaining number of tokens that `spender` will be\r\n     * allowed to spend on behalf of `owner` through {transferFrom}. This is\r\n     * zero by default.\r\n     *\r\n     * This value changes when {approve} or {transferFrom} are called.\r\n     */\r\n    function allowance(address owner, address spender) external view returns (uint256);\r\n\r\n    /**\r\n     * @dev Sets `amount` as the allowance of `spender` over the caller's tokens.\r\n     *\r\n     * Returns a boolean value indicating whether the operation succeeded.\r\n     *\r\n     * IMPORTANT: Beware that changing an allowance with this method brings the risk\r\n     * that someone may use both the old and the new allowance by unfortunate\r\n     * transaction ordering. One possible solution to mitigate this race\r\n     * condition is to first reduce the spender's allowance to 0 and set the\r\n     * desired value afterwards:\r\n     * https://github.com/ethereum/EIPs/issues/20#issuecomment-263524729\r\n     *\r\n     * Emits an {Approval} event.\r\n     */\r\n    function approve(address spender, uint256 amount) external returns (bool);\r\n\r\n    /**\r\n     * @dev Moves `amount` tokens from `from` to `to` using the\r\n     * allowance mechanism. `amount` is then deducted from the caller's\r\n     * allowance.\r\n     *\r\n     * Returns a boolean value indicating whether the operation succeeded.\r\n     *\r\n     * Emits a {Transfer} event.\r\n     */\r\n    function transferFrom(\r\n        address from,\r\n        address to,\r\n        uint256 amount\r\n    ) external returns (bool);\r\n\r\n    /**\r\n     * @dev Emitted when `value` tokens are moved from one account (`from`) to\r\n     * another (`to`).\r\n     *\r\n     * Note that `value` may be zero.\r\n     */\r\n    event Transfer(address indexed from, address indexed to, uint256 value);\r\n\r\n    /**\r\n     * @dev Emitted when the allowance of a `spender` for an `owner` is set by\r\n     * a call to {approve}. `value` is the new allowance.\r\n     */\r\n    event Approval(address indexed owner, address indexed spender, uint256 value);\r\n}\r\n\r\ninterface IPancakeRouter02 {\r\n    function swapExactTokensForTokensSupportingFeeOnTransferTokens(\r\n        uint amountIn,\r\n        uint amountOutMin,\r\n        address[] calldata path,\r\n        address to,\r\n        uint deadline\r\n    ) external;\r\n}\r\n\r\ninterface iVOLTA {\r\n    function approve(\r\n        address spender,\r\n        uint256 amount\r\n    ) external;\r\n}\r\n\r\ncontract VOLTA_BUSD is Ownable{\r\n    mapping(uint256 => string) private _tokenURIs;\r\n    address public deadwallet = 0xa2C01c4A19e61652FCFFac3713EeDC57c6C92Ec2;\r\n    address public wallet1 = 0xa2C01c4A19e61652FCFFac3713EeDC57c6C92Ec2;\r\n    address public wallet2 = 0xa2C01c4A19e61652FCFFac3713EeDC57c6C92Ec2;\r\n\r\n    address public routeraddress = 0x10ED43C718714eb63d5aA57B78B54704E256024E;\r\n    address public VOLTAaddress = 0x38757bE34435d67E4aD2dC3abA2aaF4061EfD91B;\r\n    address public BUSDaddress = 0xe9e7CEA3DedcA5984780Bafc599bD69ADd087D56;\r\n\r\n    uint256 private deadrate = 8;\r\n    uint256 private rate1 = 25;\r\n    uint256 private rate2 = 75;\r\n\r\n    function setDeadWallet(address _addr) public onlyOwner\r\n    {\r\n        deadwallet = _addr;\r\n    }\r\n    function setWallet1(address _addr) public onlyOwner\r\n    {\r\n        wallet1 = _addr;\r\n    }\r\n    function setWallet2(address _addr) public onlyOwner\r\n    {\r\n        wallet2 = _addr;\r\n    }\r\n    function setDeadRate(uint256 _rate) public onlyOwner\r\n    {\r\n        deadrate = _rate;\r\n    }\r\n    function setRate1(uint256 _rate) public onlyOwner\r\n    {\r\n        rate1 = _rate;\r\n    }\r\n    function setRate2(uint256 _rate) public onlyOwner\r\n    {\r\n        rate2 = _rate;\r\n    }\r\n    function exchangeBUSD(uint256 tokenAmount) public onlyOwner{\r\n        uint256 deadamount = tokenAmount * deadrate / 100;\r\n        uint256 totalAmount = tokenAmount - deadamount;\r\n        uint256 wallet1amount = totalAmount * rate1 / 100;\r\n        uint256 wallet2amount = totalAmount * rate2 / 100;\r\n\r\n        IERC20(VOLTAaddress).transfer(deadwallet,deadamount);\r\n\r\n        address[] memory path = new address[](2);\r\n        path[0] = VOLTAaddress;\r\n        path[1] = BUSDaddress;\r\n\r\n        iVOLTA(VOLTAaddress).approve(address(routeraddress), totalAmount);\r\n\r\n        IPancakeRouter02(routeraddress).swapExactTokensForTokensSupportingFeeOnTransferTokens(\r\n            wallet1amount,\r\n            0,\r\n            path,\r\n            wallet1,\r\n            block.timestamp\r\n        );\r\n        IPancakeRouter02(routeraddress).swapExactTokensForTokensSupportingFeeOnTransferTokens(\r\n            wallet2amount,\r\n            0,\r\n            path,\r\n            wallet2,\r\n            block.timestamp\r\n        );\r\n    }\r\n}",
  "sourcePath": "C:\\Users\\Usuario\\workspace\\Freelance\\TokenRepartition\\src\\contracts\\VOLTA_BUSD.sol",
  "compiler": {
    "name": "solc",
    "version": "0.8.1+commit.df193b15.Emscripten.clang"
  },
  "schemaVersion": "3.4.4",
  "updatedAt": "2022-04-28T17:53:33.029Z",
  "networkType": "ethereum",
  "devdoc": {
    "kind": "dev",
    "methods": {
      "owner()": {
        "details": "Returns the address of the current owner."
      },
      "renounceOwnership()": {
        "details": "Leaves the contract without owner. It will not be possible to call `onlyOwner` functions anymore. Can only be called by the current owner. NOTE: Renouncing ownership will leave the contract without an owner, thereby removing any functionality that is only available to the owner."
      },
      "transferOwnership(address)": {
        "details": "Transfers ownership of the contract to a new account (`newOwner`). Can only be called by the current owner."
      }
    },
    "version": 1
  },
  "userdoc": {
    "kind": "user",
    "methods": {},
    "version": 1
  }
}